{
  "contractName": "NFTOps",
  "abi": [
    {
      "anonymous": false,
      "inputs": [
        {
          "indexed": true,
          "internalType": "bytes16",
          "name": "mobileNo",
          "type": "bytes16"
        },
        {
          "indexed": false,
          "internalType": "uint256",
          "name": "itemId",
          "type": "uint256"
        }
      ],
      "name": "softTransfered",
      "type": "event"
    },
    {
      "inputs": [
        {
          "internalType": "address",
          "name": "",
          "type": "address"
        },
        {
          "internalType": "address",
          "name": "",
          "type": "address"
        },
        {
          "internalType": "uint256",
          "name": "",
          "type": "uint256"
        },
        {
          "internalType": "bytes",
          "name": "",
          "type": "bytes"
        }
      ],
      "name": "onERC721Received",
      "outputs": [
        {
          "internalType": "bytes4",
          "name": "",
          "type": "bytes4"
        }
      ],
      "stateMutability": "nonpayable",
      "type": "function"
    },
    {
      "inputs": [
        {
          "internalType": "uint256",
          "name": "itemId",
          "type": "uint256"
        }
      ],
      "name": "getItem",
      "outputs": [
        {
          "components": [
            {
              "internalType": "contract IERC721",
              "name": "nft",
              "type": "address"
            },
            {
              "internalType": "uint256",
              "name": "tokenId",
              "type": "uint256"
            },
            {
              "internalType": "uint256",
              "name": "buyDate",
              "type": "uint256"
            },
            {
              "internalType": "uint256",
              "name": "returnPeriod",
              "type": "uint256"
            },
            {
              "internalType": "bool",
              "name": "isClaimed",
              "type": "bool"
            },
            {
              "internalType": "string",
              "name": "denyMsg",
              "type": "string"
            },
            {
              "components": [
                {
                  "internalType": "address",
                  "name": "user",
                  "type": "address"
                },
                {
                  "internalType": "string",
                  "name": "uuid",
                  "type": "string"
                },
                {
                  "internalType": "bytes16",
                  "name": "mobileNo",
                  "type": "bytes16"
                },
                {
                  "internalType": "string",
                  "name": "email",
                  "type": "string"
                }
              ],
              "internalType": "struct NFTOps.Owner",
              "name": "owner",
              "type": "tuple"
            }
          ],
          "internalType": "struct NFTOps.Item",
          "name": "",
          "type": "tuple"
        }
      ],
      "stateMutability": "view",
      "type": "function",
      "constant": true
    },
    {
      "inputs": [
        {
          "internalType": "contract IERC721",
          "name": "nft",
          "type": "address"
        },
        {
          "internalType": "uint256",
          "name": "tokenId",
          "type": "uint256"
        },
        {
          "components": [
            {
              "internalType": "address",
              "name": "user",
              "type": "address"
            },
            {
              "internalType": "string",
              "name": "uuid",
              "type": "string"
            },
            {
              "internalType": "bytes16",
              "name": "mobileNo",
              "type": "bytes16"
            },
            {
              "internalType": "string",
              "name": "email",
              "type": "string"
            }
          ],
          "internalType": "struct NFTOps.Owner",
          "name": "to",
          "type": "tuple"
        },
        {
          "internalType": "uint256",
          "name": "buyDate",
          "type": "uint256"
        },
        {
          "internalType": "uint256",
          "name": "returnPeriod",
          "type": "uint256"
        }
      ],
      "name": "softTransfer",
      "outputs": [],
      "stateMutability": "nonpayable",
      "type": "function"
    }
  ],
  "bytecode": "0x608060405234801561001057600080fd5b506001600081905550611200806100286000396000f3fe608060405234801561001057600080fd5b50600436106100415760003560e01c8063150b7a02146100465780633129e7731461007657806332e07bef146100a6575b600080fd5b610060600480360381019061005b9190610a6b565b6100c2565b60405161006d9190610b29565b60405180910390f35b610090600480360381019061008b9190610b44565b6100d6565b60405161009d9190610dd9565b60405180910390f35b6100c060048036038101906100bb9190610fc0565b6103ef565b005b600063150b7a0260e01b9050949350505050565b6100de61072e565b600260008381526020019081526020016000206040518060e00160405290816000820160009054906101000a900473ffffffffffffffffffffffffffffffffffffffff1673ffffffffffffffffffffffffffffffffffffffff1673ffffffffffffffffffffffffffffffffffffffff1681526020016001820154815260200160028201548152602001600382015481526020016004820160009054906101000a900460ff1615151515815260200160058201805461019b90611086565b80601f01602080910402602001604051908101604052809291908181526020018280546101c790611086565b80156102145780601f106101e957610100808354040283529160200191610214565b820191906000526020600020905b8154815290600101906020018083116101f757829003601f168201915b50505050508152602001600682016040518060800160405290816000820160009054906101000a900473ffffffffffffffffffffffffffffffffffffffff1673ffffffffffffffffffffffffffffffffffffffff1673ffffffffffffffffffffffffffffffffffffffff16815260200160018201805461029390611086565b80601f01602080910402602001604051908101604052809291908181526020018280546102bf90611086565b801561030c5780601f106102e15761010080835404028352916020019161030c565b820191906000526020600020905b8154815290600101906020018083116102ef57829003601f168201915b505050505081526020016002820160009054906101000a900460801b6fffffffffffffffffffffffffffffffff19166fffffffffffffffffffffffffffffffff1916815260200160038201805461036290611086565b80601f016020809104026020016040519081016040528092919081815260200182805461038e90611086565b80156103db5780601f106103b0576101008083540402835291602001916103db565b820191906000526020600020905b8154815290600101906020018083116103be57829003601f168201915b505050505081525050815250509050919050565b6000600360008681526020019081526020016000205414610445576040517f08c379a000000000000000000000000000000000000000000000000000000000815260040161043c9061113a565b60405180910390fd5b61044f600161070a565b600061045b6001610720565b90508573ffffffffffffffffffffffffffffffffffffffff166342842e0e3330886040518463ffffffff1660e01b815260040161049a93929190611178565b600060405180830381600087803b1580156104b457600080fd5b505af11580156104c8573d6000803e3d6000fd5b505050506040518060e001604052808773ffffffffffffffffffffffffffffffffffffffff168152602001868152602001848152602001838152602001600015158152602001604051806020016040528060008152508152602001858152506002600083815260200190815260200160002060008201518160000160006101000a81548173ffffffffffffffffffffffffffffffffffffffff021916908373ffffffffffffffffffffffffffffffffffffffff16021790555060208201518160010155604082015181600201556060820151816003015560808201518160040160006101000a81548160ff02191690831515021790555060a08201518160050190805190602001906105db929190610789565b5060c08201518160060160008201518160000160006101000a81548173ffffffffffffffffffffffffffffffffffffffff021916908373ffffffffffffffffffffffffffffffffffffffff1602179055506020820151816001019080519060200190610648929190610789565b5060408201518160020160006101000a8154816fffffffffffffffffffffffffffffffff021916908360801c02179055506060820151816003019080519060200190610695929190610789565b50505090505080600360008781526020019081526020016000208190555083604001516fffffffffffffffffffffffffffffffff19167f95e9af265edc7085164fda51825f7d16b58a480594474c6fb4d590fb858a463f826040516106fa91906111af565b60405180910390a2505050505050565b6001816000016000828254019250508190555050565b600081600001549050919050565b6040518060e00160405280600073ffffffffffffffffffffffffffffffffffffffff1681526020016000815260200160008152602001600081526020016000151581526020016060815260200161078361080f565b81525090565b82805461079590611086565b90600052602060002090601f0160209004810192826107b757600085556107fe565b82601f106107d057805160ff19168380011785556107fe565b828001600101855582156107fe579182015b828111156107fd5782518255916020019190600101906107e2565b5b50905061080b9190610860565b5090565b6040518060800160405280600073ffffffffffffffffffffffffffffffffffffffff1681526020016060815260200160006fffffffffffffffffffffffffffffffff19168152602001606081525090565b5b80821115610879576000816000905550600101610861565b5090565b6000604051905090565b600080fd5b600080fd5b600073ffffffffffffffffffffffffffffffffffffffff82169050919050565b60006108bc82610891565b9050919050565b6108cc816108b1565b81146108d757600080fd5b50565b6000813590506108e9816108c3565b92915050565b6000819050919050565b610902816108ef565b811461090d57600080fd5b50565b60008135905061091f816108f9565b92915050565b600080fd5b600080fd5b6000601f19601f8301169050919050565b7f4e487b7100000000000000000000000000000000000000000000000000000000600052604160045260246000fd5b6109788261092f565b810181811067ffffffffffffffff8211171561099757610996610940565b5b80604052505050565b60006109aa61087d565b90506109b6828261096f565b919050565b600067ffffffffffffffff8211156109d6576109d5610940565b5b6109df8261092f565b9050602081019050919050565b82818337600083830152505050565b6000610a0e610a09846109bb565b6109a0565b905082815260208101848484011115610a2a57610a2961092a565b5b610a358482856109ec565b509392505050565b600082601f830112610a5257610a51610925565b5b8135610a628482602086016109fb565b91505092915050565b60008060008060808587031215610a8557610a84610887565b5b6000610a93878288016108da565b9450506020610aa4878288016108da565b9350506040610ab587828801610910565b925050606085013567ffffffffffffffff811115610ad657610ad561088c565b5b610ae287828801610a3d565b91505092959194509250565b60007fffffffff0000000000000000000000000000000000000000000000000000000082169050919050565b610b2381610aee565b82525050565b6000602082019050610b3e6000830184610b1a565b92915050565b600060208284031215610b5a57610b59610887565b5b6000610b6884828501610910565b91505092915050565b6000819050919050565b6000610b96610b91610b8c84610891565b610b71565b610891565b9050919050565b6000610ba882610b7b565b9050919050565b6000610bba82610b9d565b9050919050565b610bca81610baf565b82525050565b610bd9816108ef565b82525050565b60008115159050919050565b610bf481610bdf565b82525050565b600081519050919050565b600082825260208201905092915050565b60005b83811015610c34578082015181840152602081019050610c19565b83811115610c43576000848401525b50505050565b6000610c5482610bfa565b610c5e8185610c05565b9350610c6e818560208601610c16565b610c778161092f565b840191505092915050565b610c8b816108b1565b82525050565b60007fffffffffffffffffffffffffffffffff0000000000000000000000000000000082169050919050565b610cc681610c91565b82525050565b6000608083016000830151610ce46000860182610c82565b5060208301518482036020860152610cfc8282610c49565b9150506040830151610d116040860182610cbd565b5060608301518482036060860152610d298282610c49565b9150508091505092915050565b600060e083016000830151610d4e6000860182610bc1565b506020830151610d616020860182610bd0565b506040830151610d746040860182610bd0565b506060830151610d876060860182610bd0565b506080830151610d9a6080860182610beb565b5060a083015184820360a0860152610db28282610c49565b91505060c083015184820360c0860152610dcc8282610ccc565b9150508091505092915050565b60006020820190508181036000830152610df38184610d36565b905092915050565b6000610e06826108b1565b9050919050565b610e1681610dfb565b8114610e2157600080fd5b50565b600081359050610e3381610e0d565b92915050565b600080fd5b600080fd5b600067ffffffffffffffff821115610e5e57610e5d610940565b5b610e678261092f565b9050602081019050919050565b6000610e87610e8284610e43565b6109a0565b905082815260208101848484011115610ea357610ea261092a565b5b610eae8482856109ec565b509392505050565b600082601f830112610ecb57610eca610925565b5b8135610edb848260208601610e74565b91505092915050565b610eed81610c91565b8114610ef857600080fd5b50565b600081359050610f0a81610ee4565b92915050565b600060808284031215610f2657610f25610e39565b5b610f3060806109a0565b90506000610f40848285016108da565b600083015250602082013567ffffffffffffffff811115610f6457610f63610e3e565b5b610f7084828501610eb6565b6020830152506040610f8484828501610efb565b604083015250606082013567ffffffffffffffff811115610fa857610fa7610e3e565b5b610fb484828501610eb6565b60608301525092915050565b600080600080600060a08688031215610fdc57610fdb610887565b5b6000610fea88828901610e24565b9550506020610ffb88828901610910565b945050604086013567ffffffffffffffff81111561101c5761101b61088c565b5b61102888828901610f10565b935050606061103988828901610910565b925050608061104a88828901610910565b9150509295509295909350565b7f4e487b7100000000000000000000000000000000000000000000000000000000600052602260045260246000fd5b6000600282049050600182168061109e57607f821691505b6020821081036110b1576110b0611057565b5b50919050565b600082825260208201905092915050565b7f546f6b656e20616c7265616479207472616e73666572656420746f20736f6d6560008201527f6f6e6520656c7365000000000000000000000000000000000000000000000000602082015250565b60006111246028836110b7565b915061112f826110c8565b604082019050919050565b6000602082019050818103600083015261115381611117565b9050919050565b611163816108b1565b82525050565b611172816108ef565b82525050565b600060608201905061118d600083018661115a565b61119a602083018561115a565b6111a76040830184611169565b949350505050565b60006020820190506111c46000830184611169565b9291505056fea26469706673582212201a45e9db9e7eb4013c709101c4d0ec59dc1b01a4fbbf3a9b6910eb747a11145464736f6c634300080d0033",
  "immutableReferences": {},
  "source": "// SPDX-License-Identifier: MIT\r\npragma solidity >=0.4.22 <0.9.0;\r\n\r\n// Importing the standard libraries for NFT (ERC721)\r\nimport \"@openzeppelin/contracts/token/ERC721/IERC721.sol\";\r\nimport \"@openzeppelin/contracts/token/ERC721/IERC721Receiver.sol\";\r\n// A modifier that can prevent reentrancy during certain functions\r\nimport \"@openzeppelin/contracts/security/ReentrancyGuard.sol\";\r\n// Importing utility libraries for using safe datatypes\r\nimport \"@openzeppelin/contracts/utils/Counters.sol\";\r\n\r\n// The NFT contract is inheriting the ERC721URIStorage contract\r\n// ERC721URIStorage provide option to add metadata in the NFT\r\ncontract NFTOps is ReentrancyGuard, IERC721Receiver {\r\n\r\n    // Safe datatype, allow only increment/decrement operation\r\n    using Counters for Counters.Counter;\r\n    Counters.Counter private _itemIds;\r\n\r\n    // Owner of Item\r\n    // Used as intermediate represntation of original ownership\r\n    struct Owner {\r\n        address user;  // User crypto wallet address\r\n        string uuid;  // User ID in backend server\r\n        bytes16 mobileNo;  // Mobile no. of user\r\n        string email;  // Email of user\r\n    }\r\n    \r\n    // Metadata of item\r\n    struct Item {\r\n        IERC721 nft;  // NFT contract address\r\n        uint256 tokenId;  // NFT token ID\r\n        uint buyDate;  // Purchase date timestamp\r\n        uint returnPeriod;  // Return period timestamp\r\n        bool isClaimed;  // To check whether it is claimed or not\r\n        string denyMsg;  // If denied then what the msg otherwise empty string\r\n        Owner owner;  // Original owner of item\r\n    }\r\n    // itemId to Item mapping\r\n    mapping(uint256 => Item) private _items;\r\n    // tokenId to itemId mapping\r\n    // Useful for checking whether token is already sold or not\r\n    mapping(uint256 => uint256) private _isTransfered;\r\n\r\n    // Event after soft transfer\r\n    event softTransfered(\r\n        bytes16 indexed mobileNo,  // Mobile no. of user\r\n        uint256 itemId  // NFT Item ID\r\n    );\r\n\r\n    // Interface for any contract that wants to support safeTransfers from ERC721 asset contracts.\r\n    function onERC721Received(address, address, uint256, bytes memory) public virtual override returns (bytes4) {\r\n        return this.onERC721Received.selector;\r\n    }\r\n\r\n    // Return the Item of `itemId`\r\n    function getItem(uint256 itemId) public view returns (Item memory) {\r\n        return _items[itemId];\r\n    }\r\n\r\n    // Transfer NFT to contract address instead of directly sending it to the user\r\n    function softTransfer(IERC721 nft, uint256 tokenId, Owner memory to, uint buyDate, uint returnPeriod) public {\r\n        require(_isTransfered[tokenId]==0,\"Token already transfered to someone else\");\r\n\r\n        _itemIds.increment();\r\n        uint256 newItemId = _itemIds.current();  // get new itemId\r\n\r\n        nft.safeTransferFrom(msg.sender, address(this), tokenId); // Tranfer NFT to contract address\r\n\r\n        _items[newItemId] = Item(\r\n            nft,\r\n            tokenId,\r\n            buyDate,\r\n            returnPeriod,\r\n            false,\r\n            \"\",\r\n            to\r\n        ); // Add new entry into _items mapping\r\n        // Update itemId mapped with tokenId\r\n        _isTransfered[tokenId] = newItemId;\r\n\r\n        emit softTransfered(\r\n            to.mobileNo,\r\n            newItemId\r\n        ); // emit and return softTransfered event\r\n    }\r\n}",
  "sourcePath": "C:\\Users\\3511\\Documents\\Flipkart_GRID_Backend\\NFT-Warranty\\truffle-contract\\contracts\\NFTOps.sol",
  "compiler": {
    "name": "solc",
    "version": "0.8.13+commit.abaa5c0e.Emscripten.clang"
  },
  "schemaVersion": "3.4.8",
  "updatedAt": "2022-07-31T20:59:36.636Z",
  "networkType": "ethereum",
  "devdoc": {
    "kind": "dev",
    "methods": {},
    "version": 1
  },
  "userdoc": {
    "kind": "user",
    "methods": {},
    "version": 1
  }
}