{
  "contractName": "NFT",
  "abi": [
    {
      "inputs": [],
      "stateMutability": "nonpayable",
      "type": "constructor"
    },
    {
      "anonymous": false,
      "inputs": [
        {
          "indexed": true,
          "internalType": "address",
          "name": "owner",
          "type": "address"
        },
        {
          "indexed": true,
          "internalType": "address",
          "name": "approved",
          "type": "address"
        },
        {
          "indexed": true,
          "internalType": "uint256",
          "name": "tokenId",
          "type": "uint256"
        }
      ],
      "name": "Approval",
      "type": "event"
    },
    {
      "anonymous": false,
      "inputs": [
        {
          "indexed": true,
          "internalType": "address",
          "name": "owner",
          "type": "address"
        },
        {
          "indexed": true,
          "internalType": "address",
          "name": "operator",
          "type": "address"
        },
        {
          "indexed": false,
          "internalType": "bool",
          "name": "approved",
          "type": "bool"
        }
      ],
      "name": "ApprovalForAll",
      "type": "event"
    },
    {
      "anonymous": false,
      "inputs": [
        {
          "indexed": true,
          "internalType": "address",
          "name": "from",
          "type": "address"
        },
        {
          "indexed": true,
          "internalType": "address",
          "name": "to",
          "type": "address"
        },
        {
          "indexed": true,
          "internalType": "uint256",
          "name": "tokenId",
          "type": "uint256"
        }
      ],
      "name": "Transfer",
      "type": "event"
    },
    {
      "inputs": [
        {
          "internalType": "address",
          "name": "to",
          "type": "address"
        },
        {
          "internalType": "uint256",
          "name": "tokenId",
          "type": "uint256"
        }
      ],
      "name": "approve",
      "outputs": [],
      "stateMutability": "nonpayable",
      "type": "function"
    },
    {
      "inputs": [
        {
          "internalType": "address",
          "name": "owner",
          "type": "address"
        }
      ],
      "name": "balanceOf",
      "outputs": [
        {
          "internalType": "uint256",
          "name": "",
          "type": "uint256"
        }
      ],
      "stateMutability": "view",
      "type": "function",
      "constant": true
    },
    {
      "inputs": [
        {
          "internalType": "uint256",
          "name": "tokenId",
          "type": "uint256"
        }
      ],
      "name": "getApproved",
      "outputs": [
        {
          "internalType": "address",
          "name": "",
          "type": "address"
        }
      ],
      "stateMutability": "view",
      "type": "function",
      "constant": true
    },
    {
      "inputs": [
        {
          "internalType": "address",
          "name": "owner",
          "type": "address"
        },
        {
          "internalType": "address",
          "name": "operator",
          "type": "address"
        }
      ],
      "name": "isApprovedForAll",
      "outputs": [
        {
          "internalType": "bool",
          "name": "",
          "type": "bool"
        }
      ],
      "stateMutability": "view",
      "type": "function",
      "constant": true
    },
    {
      "inputs": [],
      "name": "name",
      "outputs": [
        {
          "internalType": "string",
          "name": "",
          "type": "string"
        }
      ],
      "stateMutability": "view",
      "type": "function",
      "constant": true
    },
    {
      "inputs": [
        {
          "internalType": "uint256",
          "name": "tokenId",
          "type": "uint256"
        }
      ],
      "name": "ownerOf",
      "outputs": [
        {
          "internalType": "address",
          "name": "",
          "type": "address"
        }
      ],
      "stateMutability": "view",
      "type": "function",
      "constant": true
    },
    {
      "inputs": [
        {
          "internalType": "address",
          "name": "from",
          "type": "address"
        },
        {
          "internalType": "address",
          "name": "to",
          "type": "address"
        },
        {
          "internalType": "uint256",
          "name": "tokenId",
          "type": "uint256"
        }
      ],
      "name": "safeTransferFrom",
      "outputs": [],
      "stateMutability": "nonpayable",
      "type": "function"
    },
    {
      "inputs": [
        {
          "internalType": "address",
          "name": "from",
          "type": "address"
        },
        {
          "internalType": "address",
          "name": "to",
          "type": "address"
        },
        {
          "internalType": "uint256",
          "name": "tokenId",
          "type": "uint256"
        },
        {
          "internalType": "bytes",
          "name": "data",
          "type": "bytes"
        }
      ],
      "name": "safeTransferFrom",
      "outputs": [],
      "stateMutability": "nonpayable",
      "type": "function"
    },
    {
      "inputs": [
        {
          "internalType": "address",
          "name": "operator",
          "type": "address"
        },
        {
          "internalType": "bool",
          "name": "approved",
          "type": "bool"
        }
      ],
      "name": "setApprovalForAll",
      "outputs": [],
      "stateMutability": "nonpayable",
      "type": "function"
    },
    {
      "inputs": [
        {
          "internalType": "bytes4",
          "name": "interfaceId",
          "type": "bytes4"
        }
      ],
      "name": "supportsInterface",
      "outputs": [
        {
          "internalType": "bool",
          "name": "",
          "type": "bool"
        }
      ],
      "stateMutability": "view",
      "type": "function",
      "constant": true
    },
    {
      "inputs": [],
      "name": "symbol",
      "outputs": [
        {
          "internalType": "string",
          "name": "",
          "type": "string"
        }
      ],
      "stateMutability": "view",
      "type": "function",
      "constant": true
    },
    {
      "inputs": [
        {
          "internalType": "uint256",
          "name": "tokenId",
          "type": "uint256"
        }
      ],
      "name": "tokenURI",
      "outputs": [
        {
          "internalType": "string",
          "name": "",
          "type": "string"
        }
      ],
      "stateMutability": "view",
      "type": "function",
      "constant": true
    },
    {
      "inputs": [
        {
          "internalType": "address",
          "name": "from",
          "type": "address"
        },
        {
          "internalType": "address",
          "name": "to",
          "type": "address"
        },
        {
          "internalType": "uint256",
          "name": "tokenId",
          "type": "uint256"
        }
      ],
      "name": "transferFrom",
      "outputs": [],
      "stateMutability": "nonpayable",
      "type": "function"
    },
    {
      "inputs": [
        {
          "internalType": "uint256",
          "name": "tokenId",
          "type": "uint256"
        }
      ],
      "name": "getMetadata",
      "outputs": [
        {
          "components": [
            {
              "internalType": "string",
              "name": "brand",
              "type": "string"
            },
            {
              "internalType": "string",
              "name": "model",
              "type": "string"
            },
            {
              "internalType": "uint256",
              "name": "warrantyPeriod",
              "type": "uint256"
            },
            {
              "internalType": "string",
              "name": "identifier",
              "type": "string"
            }
          ],
          "internalType": "struct NFT.Metadata",
          "name": "",
          "type": "tuple"
        }
      ],
      "stateMutability": "view",
      "type": "function",
      "constant": true
    },
    {
      "inputs": [
        {
          "internalType": "string",
          "name": "_tokenURI",
          "type": "string"
        },
        {
          "components": [
            {
              "internalType": "string",
              "name": "brand",
              "type": "string"
            },
            {
              "internalType": "string",
              "name": "model",
              "type": "string"
            },
            {
              "internalType": "uint256",
              "name": "warrantyPeriod",
              "type": "uint256"
            },
            {
              "internalType": "string",
              "name": "identifier",
              "type": "string"
            }
          ],
          "internalType": "struct NFT.Metadata",
          "name": "metadata",
          "type": "tuple"
        }
      ],
      "name": "mint",
      "outputs": [
        {
          "internalType": "uint256",
          "name": "",
          "type": "uint256"
        }
      ],
      "stateMutability": "nonpayable",
      "type": "function"
    }
  ],
  "bytecode": "0x60806040523480156200001157600080fd5b506040518060400160405280600c81526020017f57617272616e7479204e465400000000000000000000000000000000000000008152506040518060400160405280600581526020017f572d4e4654000000000000000000000000000000000000000000000000000000815250816000908051906020019062000096929190620000b8565b508060019080519060200190620000af929190620000b8565b505050620001cc565b828054620000c69062000197565b90600052602060002090601f016020900481019282620000ea576000855562000136565b82601f106200010557805160ff191683800117855562000136565b8280016001018555821562000136579182015b828111156200013557825182559160200191906001019062000118565b5b50905062000145919062000149565b5090565b5b80821115620001645760008160009055506001016200014a565b5090565b7f4e487b7100000000000000000000000000000000000000000000000000000000600052602260045260246000fd5b60006002820490506001821680620001b057607f821691505b602082108103620001c657620001c562000168565b5b50919050565b612e2580620001dc6000396000f3fe608060405234801561001057600080fd5b50600436106100f55760003560e01c80636352211e11610097578063a574cea411610066578063a574cea414610296578063b88d4fde146102c6578063c87b56dd146102e2578063e985e9c514610312576100f5565b80636352211e146101fc57806370a082311461022c57806395d89b411461025c578063a22cb4651461027a576100f5565b8063095ea7b3116100d3578063095ea7b31461017857806323b872dd146101945780632f38febc146101b057806342842e0e146101e0576100f5565b806301ffc9a7146100fa57806306fdde031461012a578063081812fc14610148575b600080fd5b610114600480360381019061010f9190611b87565b610342565b6040516101219190611bcf565b60405180910390f35b610132610424565b60405161013f9190611c83565b60405180910390f35b610162600480360381019061015d9190611cdb565b6104b6565b60405161016f9190611d49565b60405180910390f35b610192600480360381019061018d9190611d90565b6104fc565b005b6101ae60048036038101906101a99190611dd0565b610613565b005b6101ca60048036038101906101c5919061202e565b610673565b6040516101d791906120b5565b60405180910390f35b6101fa60048036038101906101f59190611dd0565b6106b5565b005b61021660048036038101906102119190611cdb565b6106d5565b6040516102239190611d49565b60405180910390f35b610246600480360381019061024191906120d0565b610786565b60405161025391906120b5565b60405180910390f35b61026461083d565b6040516102719190611c83565b60405180910390f35b610294600480360381019061028f9190612129565b6108cf565b005b6102b060048036038101906102ab9190611cdb565b6108e5565b6040516102bd9190612233565b60405180910390f35b6102e060048036038101906102db91906122f6565b610adb565b005b6102fc60048036038101906102f79190611cdb565b610b3d565b6040516103099190611c83565b60405180910390f35b61032c60048036038101906103279190612379565b610c4f565b6040516103399190611bcf565b60405180910390f35b60007f80ac58cd000000000000000000000000000000000000000000000000000000007bffffffffffffffffffffffffffffffffffffffffffffffffffffffff1916827bffffffffffffffffffffffffffffffffffffffffffffffffffffffff1916148061040d57507f5b5e139f000000000000000000000000000000000000000000000000000000007bffffffffffffffffffffffffffffffffffffffffffffffffffffffff1916827bffffffffffffffffffffffffffffffffffffffffffffffffffffffff1916145b8061041d575061041c82610ce3565b5b9050919050565b606060008054610433906123e8565b80601f016020809104026020016040519081016040528092919081815260200182805461045f906123e8565b80156104ac5780601f10610481576101008083540402835291602001916104ac565b820191906000526020600020905b81548152906001019060200180831161048f57829003601f168201915b5050505050905090565b60006104c182610d4d565b6004600083815260200190815260200160002060009054906101000a900473ffffffffffffffffffffffffffffffffffffffff169050919050565b6000610507826106d5565b90508073ffffffffffffffffffffffffffffffffffffffff168373ffffffffffffffffffffffffffffffffffffffff1603610577576040517f08c379a000000000000000000000000000000000000000000000000000000000815260040161056e9061248b565b60405180910390fd5b8073ffffffffffffffffffffffffffffffffffffffff16610596610d98565b73ffffffffffffffffffffffffffffffffffffffff1614806105c557506105c4816105bf610d98565b610c4f565b5b610604576040517f08c379a00000000000000000000000000000000000000000000000000000000081526004016105fb9061251d565b60405180910390fd5b61060e8383610da0565b505050565b61062461061e610d98565b82610e59565b610663576040517f08c379a000000000000000000000000000000000000000000000000000000000815260040161065a906125af565b60405180910390fd5b61066e838383610eee565b505050565b600061067f6007611154565b600061068b600761116a565b90506106973382611178565b6106a18185611351565b6106ab81846113c5565b8091505092915050565b6106d083838360405180602001604052806000815250610adb565b505050565b6000806002600084815260200190815260200160002060009054906101000a900473ffffffffffffffffffffffffffffffffffffffff169050600073ffffffffffffffffffffffffffffffffffffffff168173ffffffffffffffffffffffffffffffffffffffff160361077d576040517f08c379a00000000000000000000000000000000000000000000000000000000081526004016107749061261b565b60405180910390fd5b80915050919050565b60008073ffffffffffffffffffffffffffffffffffffffff168273ffffffffffffffffffffffffffffffffffffffff16036107f6576040517f08c379a00000000000000000000000000000000000000000000000000000000081526004016107ed906126ad565b60405180910390fd5b600360008373ffffffffffffffffffffffffffffffffffffffff1673ffffffffffffffffffffffffffffffffffffffff168152602001908152602001600020549050919050565b60606001805461084c906123e8565b80601f0160208091040260200160405190810160405280929190818152602001828054610878906123e8565b80156108c55780601f1061089a576101008083540402835291602001916108c5565b820191906000526020600020905b8154815290600101906020018083116108a857829003601f168201915b5050505050905090565b6108e16108da610d98565b8383611489565b5050565b6108ed611a50565b6108f682610d4d565b60086000838152602001908152602001600020604051806080016040529081600082018054610924906123e8565b80601f0160208091040260200160405190810160405280929190818152602001828054610950906123e8565b801561099d5780601f106109725761010080835404028352916020019161099d565b820191906000526020600020905b81548152906001019060200180831161098057829003601f168201915b505050505081526020016001820180546109b6906123e8565b80601f01602080910402602001604051908101604052809291908181526020018280546109e2906123e8565b8015610a2f5780601f10610a0457610100808354040283529160200191610a2f565b820191906000526020600020905b815481529060010190602001808311610a1257829003601f168201915b5050505050815260200160028201548152602001600382018054610a52906123e8565b80601f0160208091040260200160405190810160405280929190818152602001828054610a7e906123e8565b8015610acb5780601f10610aa057610100808354040283529160200191610acb565b820191906000526020600020905b815481529060010190602001808311610aae57829003601f168201915b5050505050815250509050919050565b610aec610ae6610d98565b83610e59565b610b2b576040517f08c379a0000000000000000000000000000000000000000000000000000000008152600401610b22906125af565b60405180910390fd5b610b37848484846115f5565b50505050565b6060610b4882610d4d565b6000600660008481526020019081526020016000208054610b68906123e8565b80601f0160208091040260200160405190810160405280929190818152602001828054610b94906123e8565b8015610be15780601f10610bb657610100808354040283529160200191610be1565b820191906000526020600020905b815481529060010190602001808311610bc457829003601f168201915b505050505090506000610bf2611651565b90506000815103610c07578192505050610c4a565b600082511115610c3c578082604051602001610c24929190612709565b60405160208183030381529060405292505050610c4a565b610c4584611668565b925050505b919050565b6000600560008473ffffffffffffffffffffffffffffffffffffffff1673ffffffffffffffffffffffffffffffffffffffff16815260200190815260200160002060008373ffffffffffffffffffffffffffffffffffffffff1673ffffffffffffffffffffffffffffffffffffffff16815260200190815260200160002060009054906101000a900460ff16905092915050565b60007f01ffc9a7000000000000000000000000000000000000000000000000000000007bffffffffffffffffffffffffffffffffffffffffffffffffffffffff1916827bffffffffffffffffffffffffffffffffffffffffffffffffffffffff1916149050919050565b610d56816116d0565b610d95576040517f08c379a0000000000000000000000000000000000000000000000000000000008152600401610d8c9061261b565b60405180910390fd5b50565b600033905090565b816004600083815260200190815260200160002060006101000a81548173ffffffffffffffffffffffffffffffffffffffff021916908373ffffffffffffffffffffffffffffffffffffffff160217905550808273ffffffffffffffffffffffffffffffffffffffff16610e13836106d5565b73ffffffffffffffffffffffffffffffffffffffff167f8c5be1e5ebec7d5bd14f71427d1e84f3dd0314c0f7b2291e5b200ac8c7c3b92560405160405180910390a45050565b600080610e65836106d5565b90508073ffffffffffffffffffffffffffffffffffffffff168473ffffffffffffffffffffffffffffffffffffffff161480610ea75750610ea68185610c4f565b5b80610ee557508373ffffffffffffffffffffffffffffffffffffffff16610ecd846104b6565b73ffffffffffffffffffffffffffffffffffffffff16145b91505092915050565b8273ffffffffffffffffffffffffffffffffffffffff16610f0e826106d5565b73ffffffffffffffffffffffffffffffffffffffff1614610f64576040517f08c379a0000000000000000000000000000000000000000000000000000000008152600401610f5b9061279f565b60405180910390fd5b600073ffffffffffffffffffffffffffffffffffffffff168273ffffffffffffffffffffffffffffffffffffffff1603610fd3576040517f08c379a0000000000000000000000000000000000000000000000000000000008152600401610fca90612831565b60405180910390fd5b610fde83838361173c565b610fe9600082610da0565b6001600360008573ffffffffffffffffffffffffffffffffffffffff1673ffffffffffffffffffffffffffffffffffffffff16815260200190815260200160002060008282546110399190612880565b925050819055506001600360008473ffffffffffffffffffffffffffffffffffffffff1673ffffffffffffffffffffffffffffffffffffffff168152602001908152602001600020600082825461109091906128b4565b92505081905550816002600083815260200190815260200160002060006101000a81548173ffffffffffffffffffffffffffffffffffffffff021916908373ffffffffffffffffffffffffffffffffffffffff160217905550808273ffffffffffffffffffffffffffffffffffffffff168473ffffffffffffffffffffffffffffffffffffffff167fddf252ad1be2c89b69c2b068fc378daa952ba7f163c4a11628f55a4df523b3ef60405160405180910390a461114f838383611741565b505050565b6001816000016000828254019250508190555050565b600081600001549050919050565b600073ffffffffffffffffffffffffffffffffffffffff168273ffffffffffffffffffffffffffffffffffffffff16036111e7576040517f08c379a00000000000000000000000000000000000000000000000000000000081526004016111de90612956565b60405180910390fd5b6111f0816116d0565b15611230576040517f08c379a0000000000000000000000000000000000000000000000000000000008152600401611227906129c2565b60405180910390fd5b61123c6000838361173c565b6001600360008473ffffffffffffffffffffffffffffffffffffffff1673ffffffffffffffffffffffffffffffffffffffff168152602001908152602001600020600082825461128c91906128b4565b92505081905550816002600083815260200190815260200160002060006101000a81548173ffffffffffffffffffffffffffffffffffffffff021916908373ffffffffffffffffffffffffffffffffffffffff160217905550808273ffffffffffffffffffffffffffffffffffffffff16600073ffffffffffffffffffffffffffffffffffffffff167fddf252ad1be2c89b69c2b068fc378daa952ba7f163c4a11628f55a4df523b3ef60405160405180910390a461134d60008383611741565b5050565b61135a826116d0565b611399576040517f08c379a000000000000000000000000000000000000000000000000000000000815260040161139090612a54565b60405180910390fd5b806006600084815260200190815260200160002090805190602001906113c0929190611a78565b505050565b6113ce826116d0565b61140d576040517f08c379a000000000000000000000000000000000000000000000000000000000815260040161140490612ae6565b60405180910390fd5b8060086000848152602001908152602001600020600082015181600001908051906020019061143d929190611a78565b50602082015181600101908051906020019061145a929190611a78565b50604082015181600201556060820151816003019080519060200190611481929190611a78565b509050505050565b8173ffffffffffffffffffffffffffffffffffffffff168373ffffffffffffffffffffffffffffffffffffffff16036114f7576040517f08c379a00000000000000000000000000000000000000000000000000000000081526004016114ee90612b52565b60405180910390fd5b80600560008573ffffffffffffffffffffffffffffffffffffffff1673ffffffffffffffffffffffffffffffffffffffff16815260200190815260200160002060008473ffffffffffffffffffffffffffffffffffffffff1673ffffffffffffffffffffffffffffffffffffffff16815260200190815260200160002060006101000a81548160ff0219169083151502179055508173ffffffffffffffffffffffffffffffffffffffff168373ffffffffffffffffffffffffffffffffffffffff167f17307eab39ab6107e8899845ad3d59bd9653f200f220920489ca2b5937696c31836040516115e89190611bcf565b60405180910390a3505050565b611600848484610eee565b61160c84848484611746565b61164b576040517f08c379a000000000000000000000000000000000000000000000000000000000815260040161164290612be4565b60405180910390fd5b50505050565b606060405180602001604052806000815250905090565b606061167382610d4d565b600061167d611651565b9050600081511161169d57604051806020016040528060008152506116c8565b806116a7846118cd565b6040516020016116b8929190612709565b6040516020818303038152906040525b915050919050565b60008073ffffffffffffffffffffffffffffffffffffffff166002600084815260200190815260200160002060009054906101000a900473ffffffffffffffffffffffffffffffffffffffff1673ffffffffffffffffffffffffffffffffffffffff1614159050919050565b505050565b505050565b60006117678473ffffffffffffffffffffffffffffffffffffffff16611a2d565b156118c0578373ffffffffffffffffffffffffffffffffffffffff1663150b7a02611790610d98565b8786866040518563ffffffff1660e01b81526004016117b29493929190612c59565b6020604051808303816000875af19250505080156117ee57506040513d601f19601f820116820180604052508101906117eb9190612cba565b60015b611870573d806000811461181e576040519150601f19603f3d011682016040523d82523d6000602084013e611823565b606091505b506000815103611868576040517f08c379a000000000000000000000000000000000000000000000000000000000815260040161185f90612be4565b60405180910390fd5b805181602001fd5b63150b7a0260e01b7bffffffffffffffffffffffffffffffffffffffffffffffffffffffff1916817bffffffffffffffffffffffffffffffffffffffffffffffffffffffff1916149150506118c5565b600190505b949350505050565b606060008203611914576040518060400160405280600181526020017f30000000000000000000000000000000000000000000000000000000000000008152509050611a28565b600082905060005b6000821461194657808061192f90612ce7565b915050600a8261193f9190612d5e565b915061191c565b60008167ffffffffffffffff81111561196257611961611e2d565b5b6040519080825280601f01601f1916602001820160405280156119945781602001600182028036833780820191505090505b5090505b60008514611a21576001826119ad9190612880565b9150600a856119bc9190612d8f565b60306119c891906128b4565b60f81b8183815181106119de576119dd612dc0565b5b60200101907effffffffffffffffffffffffffffffffffffffffffffffffffffffffffffff1916908160001a905350600a85611a1a9190612d5e565b9450611998565b8093505050505b919050565b6000808273ffffffffffffffffffffffffffffffffffffffff163b119050919050565b6040518060800160405280606081526020016060815260200160008152602001606081525090565b828054611a84906123e8565b90600052602060002090601f016020900481019282611aa65760008555611aed565b82601f10611abf57805160ff1916838001178555611aed565b82800160010185558215611aed579182015b82811115611aec578251825591602001919060010190611ad1565b5b509050611afa9190611afe565b5090565b5b80821115611b17576000816000905550600101611aff565b5090565b6000604051905090565b600080fd5b600080fd5b60007fffffffff0000000000000000000000000000000000000000000000000000000082169050919050565b611b6481611b2f565b8114611b6f57600080fd5b50565b600081359050611b8181611b5b565b92915050565b600060208284031215611b9d57611b9c611b25565b5b6000611bab84828501611b72565b91505092915050565b60008115159050919050565b611bc981611bb4565b82525050565b6000602082019050611be46000830184611bc0565b92915050565b600081519050919050565b600082825260208201905092915050565b60005b83811015611c24578082015181840152602081019050611c09565b83811115611c33576000848401525b50505050565b6000601f19601f8301169050919050565b6000611c5582611bea565b611c5f8185611bf5565b9350611c6f818560208601611c06565b611c7881611c39565b840191505092915050565b60006020820190508181036000830152611c9d8184611c4a565b905092915050565b6000819050919050565b611cb881611ca5565b8114611cc357600080fd5b50565b600081359050611cd581611caf565b92915050565b600060208284031215611cf157611cf0611b25565b5b6000611cff84828501611cc6565b91505092915050565b600073ffffffffffffffffffffffffffffffffffffffff82169050919050565b6000611d3382611d08565b9050919050565b611d4381611d28565b82525050565b6000602082019050611d5e6000830184611d3a565b92915050565b611d6d81611d28565b8114611d7857600080fd5b50565b600081359050611d8a81611d64565b92915050565b60008060408385031215611da757611da6611b25565b5b6000611db585828601611d7b565b9250506020611dc685828601611cc6565b9150509250929050565b600080600060608486031215611de957611de8611b25565b5b6000611df786828701611d7b565b9350506020611e0886828701611d7b565b9250506040611e1986828701611cc6565b9150509250925092565b600080fd5b600080fd5b7f4e487b7100000000000000000000000000000000000000000000000000000000600052604160045260246000fd5b611e6582611c39565b810181811067ffffffffffffffff82111715611e8457611e83611e2d565b5b80604052505050565b6000611e97611b1b565b9050611ea38282611e5c565b919050565b600067ffffffffffffffff821115611ec357611ec2611e2d565b5b611ecc82611c39565b9050602081019050919050565b82818337600083830152505050565b6000611efb611ef684611ea8565b611e8d565b905082815260208101848484011115611f1757611f16611e28565b5b611f22848285611ed9565b509392505050565b600082601f830112611f3f57611f3e611e23565b5b8135611f4f848260208601611ee8565b91505092915050565b600080fd5b600080fd5b600060808284031215611f7857611f77611f58565b5b611f826080611e8d565b9050600082013567ffffffffffffffff811115611fa257611fa1611f5d565b5b611fae84828501611f2a565b600083015250602082013567ffffffffffffffff811115611fd257611fd1611f5d565b5b611fde84828501611f2a565b6020830152506040611ff284828501611cc6565b604083015250606082013567ffffffffffffffff81111561201657612015611f5d565b5b61202284828501611f2a565b60608301525092915050565b6000806040838503121561204557612044611b25565b5b600083013567ffffffffffffffff81111561206357612062611b2a565b5b61206f85828601611f2a565b925050602083013567ffffffffffffffff8111156120905761208f611b2a565b5b61209c85828601611f62565b9150509250929050565b6120af81611ca5565b82525050565b60006020820190506120ca60008301846120a6565b92915050565b6000602082840312156120e6576120e5611b25565b5b60006120f484828501611d7b565b91505092915050565b61210681611bb4565b811461211157600080fd5b50565b600081359050612123816120fd565b92915050565b600080604083850312156121405761213f611b25565b5b600061214e85828601611d7b565b925050602061215f85828601612114565b9150509250929050565b600082825260208201905092915050565b600061218582611bea565b61218f8185612169565b935061219f818560208601611c06565b6121a881611c39565b840191505092915050565b6121bc81611ca5565b82525050565b600060808301600083015184820360008601526121df828261217a565b915050602083015184820360208601526121f9828261217a565b915050604083015161220e60408601826121b3565b5060608301518482036060860152612226828261217a565b9150508091505092915050565b6000602082019050818103600083015261224d81846121c2565b905092915050565b600067ffffffffffffffff8211156122705761226f611e2d565b5b61227982611c39565b9050602081019050919050565b600061229961229484612255565b611e8d565b9050828152602081018484840111156122b5576122b4611e28565b5b6122c0848285611ed9565b509392505050565b600082601f8301126122dd576122dc611e23565b5b81356122ed848260208601612286565b91505092915050565b600080600080608085870312156123105761230f611b25565b5b600061231e87828801611d7b565b945050602061232f87828801611d7b565b935050604061234087828801611cc6565b925050606085013567ffffffffffffffff81111561236157612360611b2a565b5b61236d878288016122c8565b91505092959194509250565b600080604083850312156123905761238f611b25565b5b600061239e85828601611d7b565b92505060206123af85828601611d7b565b9150509250929050565b7f4e487b7100000000000000000000000000000000000000000000000000000000600052602260045260246000fd5b6000600282049050600182168061240057607f821691505b602082108103612413576124126123b9565b5b50919050565b7f4552433732313a20617070726f76616c20746f2063757272656e74206f776e6560008201527f7200000000000000000000000000000000000000000000000000000000000000602082015250565b6000612475602183611bf5565b915061248082612419565b604082019050919050565b600060208201905081810360008301526124a481612468565b9050919050565b7f4552433732313a20617070726f76652063616c6c6572206973206e6f7420746f60008201527f6b656e206f776e6572206e6f7220617070726f76656420666f7220616c6c0000602082015250565b6000612507603e83611bf5565b9150612512826124ab565b604082019050919050565b60006020820190508181036000830152612536816124fa565b9050919050565b7f4552433732313a2063616c6c6572206973206e6f7420746f6b656e206f776e6560008201527f72206e6f7220617070726f766564000000000000000000000000000000000000602082015250565b6000612599602e83611bf5565b91506125a48261253d565b604082019050919050565b600060208201905081810360008301526125c88161258c565b9050919050565b7f4552433732313a20696e76616c696420746f6b656e2049440000000000000000600082015250565b6000612605601883611bf5565b9150612610826125cf565b602082019050919050565b60006020820190508181036000830152612634816125f8565b9050919050565b7f4552433732313a2061646472657373207a65726f206973206e6f74206120766160008201527f6c6964206f776e65720000000000000000000000000000000000000000000000602082015250565b6000612697602983611bf5565b91506126a28261263b565b604082019050919050565b600060208201905081810360008301526126c68161268a565b9050919050565b600081905092915050565b60006126e382611bea565b6126ed81856126cd565b93506126fd818560208601611c06565b80840191505092915050565b600061271582856126d8565b915061272182846126d8565b91508190509392505050565b7f4552433732313a207472616e736665722066726f6d20696e636f72726563742060008201527f6f776e6572000000000000000000000000000000000000000000000000000000602082015250565b6000612789602583611bf5565b91506127948261272d565b604082019050919050565b600060208201905081810360008301526127b88161277c565b9050919050565b7f4552433732313a207472616e7366657220746f20746865207a65726f2061646460008201527f7265737300000000000000000000000000000000000000000000000000000000602082015250565b600061281b602483611bf5565b9150612826826127bf565b604082019050919050565b6000602082019050818103600083015261284a8161280e565b9050919050565b7f4e487b7100000000000000000000000000000000000000000000000000000000600052601160045260246000fd5b600061288b82611ca5565b915061289683611ca5565b9250828210156128a9576128a8612851565b5b828203905092915050565b60006128bf82611ca5565b91506128ca83611ca5565b9250827fffffffffffffffffffffffffffffffffffffffffffffffffffffffffffffffff038211156128ff576128fe612851565b5b828201905092915050565b7f4552433732313a206d696e7420746f20746865207a65726f2061646472657373600082015250565b6000612940602083611bf5565b915061294b8261290a565b602082019050919050565b6000602082019050818103600083015261296f81612933565b9050919050565b7f4552433732313a20746f6b656e20616c7265616479206d696e74656400000000600082015250565b60006129ac601c83611bf5565b91506129b782612976565b602082019050919050565b600060208201905081810360008301526129db8161299f565b9050919050565b7f45524337323155524953746f726167653a2055524920736574206f66206e6f6e60008201527f6578697374656e7420746f6b656e000000000000000000000000000000000000602082015250565b6000612a3e602e83611bf5565b9150612a49826129e2565b604082019050919050565b60006020820190508181036000830152612a6d81612a31565b9050919050565b7f4d6574616461746120736574206f66206e6f6e6578697374656e7420746f6b6560008201527f6e00000000000000000000000000000000000000000000000000000000000000602082015250565b6000612ad0602183611bf5565b9150612adb82612a74565b604082019050919050565b60006020820190508181036000830152612aff81612ac3565b9050919050565b7f4552433732313a20617070726f766520746f2063616c6c657200000000000000600082015250565b6000612b3c601983611bf5565b9150612b4782612b06565b602082019050919050565b60006020820190508181036000830152612b6b81612b2f565b9050919050565b7f4552433732313a207472616e7366657220746f206e6f6e20455243373231526560008201527f63656976657220696d706c656d656e7465720000000000000000000000000000602082015250565b6000612bce603283611bf5565b9150612bd982612b72565b604082019050919050565b60006020820190508181036000830152612bfd81612bc1565b9050919050565b600081519050919050565b600082825260208201905092915050565b6000612c2b82612c04565b612c358185612c0f565b9350612c45818560208601611c06565b612c4e81611c39565b840191505092915050565b6000608082019050612c6e6000830187611d3a565b612c7b6020830186611d3a565b612c8860408301856120a6565b8181036060830152612c9a8184612c20565b905095945050505050565b600081519050612cb481611b5b565b92915050565b600060208284031215612cd057612ccf611b25565b5b6000612cde84828501612ca5565b91505092915050565b6000612cf282611ca5565b91507fffffffffffffffffffffffffffffffffffffffffffffffffffffffffffffffff8203612d2457612d23612851565b5b600182019050919050565b7f4e487b7100000000000000000000000000000000000000000000000000000000600052601260045260246000fd5b6000612d6982611ca5565b9150612d7483611ca5565b925082612d8457612d83612d2f565b5b828204905092915050565b6000612d9a82611ca5565b9150612da583611ca5565b925082612db557612db4612d2f565b5b828206905092915050565b7f4e487b7100000000000000000000000000000000000000000000000000000000600052603260045260246000fdfea2646970667358221220bbb68e11dc2a360f134ce1cdaad5e42bed625ffd0b67ec79ed2ffba68ae4ad4d64736f6c634300080d0033",
  "immutableReferences": {},
  "source": "// SPDX-License-Identifier: MIT\r\npragma solidity >=0.4.22 <0.9.0;\r\n\r\n// Importing the standard libraries for NFT (ERC721)\r\nimport \"@openzeppelin/contracts/token/ERC721/extensions/ERC721URIStorage.sol\";\r\n// Importing utility libraries for using safe datatypes\r\nimport \"@openzeppelin/contracts/utils/Counters.sol\";\r\n\r\n// The NFT contract is inheriting the ERC721URIStorage contract\r\n// ERC721URIStorage provide option to add metadata in the NFT\r\ncontract NFT is ERC721URIStorage {\r\n\r\n    // Safe datatype, allow only increment/decrement operation\r\n    using Counters for Counters.Counter;\r\n    Counters.Counter private _tokenIds;\r\n    \r\n    // Metadata of item\r\n    struct Metadata {\r\n        string brand; // brand or manufacturer of item\r\n        string model; // Model id/no./title of item\r\n        uint warrantyPeriod; // Warranty period of item in timestamp\r\n        string identifier; // Unique identification id for item\r\n    }\r\n    // tokenId to Metadata mapping\r\n    mapping(uint256 => Metadata) private _metadata;\r\n\r\n    // Initializing the ERC721 contract with NFT Name and Symbol Name\r\n    constructor() ERC721(\"Warranty NFT\", \"W-NFT\"){}\r\n\r\n    // Sets the Metadata of `tokenId`\r\n    function _setMetadata(uint256 tokenId, Metadata memory metdata) internal {\r\n        require(_exists(tokenId), \"Metadata set of nonexistent token\");\r\n        _metadata[tokenId] = metdata;\r\n    }\r\n\r\n    // Return the Metadata of `tokenId`\r\n    function getMetadata(uint256 tokenId) public view returns (Metadata memory) {\r\n        _requireMinted(tokenId);\r\n        return _metadata[tokenId];\r\n    }\r\n\r\n    // Function for minting\r\n    function mint(string memory _tokenURI, Metadata memory metadata) external returns (uint256)\r\n    {\r\n        _tokenIds.increment();\r\n        uint256 newItemId = _tokenIds.current();  // get new tokenId\r\n\r\n        _mint(msg.sender, newItemId);  // mint token with sender address\r\n        _setTokenURI(newItemId, _tokenURI); // set tokenURI of token\r\n        _setMetadata(newItemId, metadata); // set metadata of token\r\n\r\n        return newItemId;\r\n    }\r\n}",
  "sourcePath": "C:\\Users\\3511\\Documents\\Flipkart_GRID_Backend\\NFT-Warranty\\truffle-contract\\contracts\\NFT.sol",
  "compiler": {
    "name": "solc",
    "version": "0.8.13+commit.abaa5c0e.Emscripten.clang"
  },
  "schemaVersion": "3.4.8",
  "updatedAt": "2022-07-31T20:59:34.624Z",
  "networkType": "ethereum",
  "devdoc": {
    "kind": "dev",
    "methods": {
      "approve(address,uint256)": {
        "details": "See {IERC721-approve}."
      },
      "balanceOf(address)": {
        "details": "See {IERC721-balanceOf}."
      },
      "getApproved(uint256)": {
        "details": "See {IERC721-getApproved}."
      },
      "isApprovedForAll(address,address)": {
        "details": "See {IERC721-isApprovedForAll}."
      },
      "name()": {
        "details": "See {IERC721Metadata-name}."
      },
      "ownerOf(uint256)": {
        "details": "See {IERC721-ownerOf}."
      },
      "safeTransferFrom(address,address,uint256)": {
        "details": "See {IERC721-safeTransferFrom}."
      },
      "safeTransferFrom(address,address,uint256,bytes)": {
        "details": "See {IERC721-safeTransferFrom}."
      },
      "setApprovalForAll(address,bool)": {
        "details": "See {IERC721-setApprovalForAll}."
      },
      "supportsInterface(bytes4)": {
        "details": "See {IERC165-supportsInterface}."
      },
      "symbol()": {
        "details": "See {IERC721Metadata-symbol}."
      },
      "tokenURI(uint256)": {
        "details": "See {IERC721Metadata-tokenURI}."
      },
      "transferFrom(address,address,uint256)": {
        "details": "See {IERC721-transferFrom}."
      }
    },
    "version": 1
  },
  "userdoc": {
    "kind": "user",
    "methods": {},
    "version": 1
  }
}